{
  "_format": "hh-sol-artifact-1",
  "contractName": "Campaign",
  "sourceName": "contracts/Campaign.sol",
  "abi": [
    {
      "anonymous": false,
      "inputs": [
        {
          "indexed": false,
          "internalType": "uint256",
          "name": "campaignId",
          "type": "uint256"
        },
        {
          "indexed": false,
          "internalType": "address",
          "name": "fundraiser",
          "type": "address"
        }
      ],
      "name": "CampaignCreated",
      "type": "event"
    },
    {
      "anonymous": false,
      "inputs": [
        {
          "indexed": false,
          "internalType": "uint256",
          "name": "campaignId",
          "type": "uint256"
        },
        {
          "indexed": false,
          "internalType": "address",
          "name": "donor",
          "type": "address"
        },
        {
          "indexed": false,
          "internalType": "uint256",
          "name": "amount",
          "type": "uint256"
        }
      ],
      "name": "DonationReceived",
      "type": "event"
    },
    {
      "anonymous": false,
      "inputs": [
        {
          "indexed": false,
          "internalType": "uint256",
          "name": "campaignId",
          "type": "uint256"
        },
        {
          "indexed": false,
          "internalType": "address",
          "name": "fundraiser",
          "type": "address"
        },
        {
          "indexed": false,
          "internalType": "uint256",
          "name": "amount",
          "type": "uint256"
        }
      ],
      "name": "FundsWithdrawn",
      "type": "event"
    },
    {
      "inputs": [
        {
          "internalType": "uint256",
          "name": "",
          "type": "uint256"
        }
      ],
      "name": "availableDurations",
      "outputs": [
        {
          "internalType": "uint256",
          "name": "",
          "type": "uint256"
        }
      ],
      "stateMutability": "view",
      "type": "function"
    },
    {
      "inputs": [],
      "name": "campaignCount",
      "outputs": [
        {
          "internalType": "uint256",
          "name": "",
          "type": "uint256"
        }
      ],
      "stateMutability": "view",
      "type": "function"
    },
    {
      "inputs": [
        {
          "internalType": "uint256",
          "name": "",
          "type": "uint256"
        }
      ],
      "name": "campaigns",
      "outputs": [
        {
          "internalType": "string",
          "name": "title",
          "type": "string"
        },
        {
          "internalType": "address payable",
          "name": "fundraiser",
          "type": "address"
        },
        {
          "internalType": "uint256",
          "name": "goal",
          "type": "uint256"
        },
        {
          "internalType": "uint256",
          "name": "raisedAmount",
          "type": "uint256"
        },
        {
          "internalType": "uint256",
          "name": "deadline",
          "type": "uint256"
        },
        {
          "internalType": "string",
          "name": "story",
          "type": "string"
        },
        {
          "internalType": "string",
          "name": "imageUrl",
          "type": "string"
        },
        {
          "internalType": "bool",
          "name": "isActive",
          "type": "bool"
        },
        {
          "internalType": "bool",
          "name": "isWithdrawn",
          "type": "bool"
        }
      ],
      "stateMutability": "view",
      "type": "function"
    },
    {
      "inputs": [
        {
          "internalType": "string",
          "name": "_title",
          "type": "string"
        },
        {
          "internalType": "uint256",
          "name": "_goal",
          "type": "uint256"
        },
        {
          "internalType": "uint256",
          "name": "_duration",
          "type": "uint256"
        },
        {
          "internalType": "string",
          "name": "_story",
          "type": "string"
        },
        {
          "internalType": "string",
          "name": "_imageUrl",
          "type": "string"
        }
      ],
      "name": "createCampaign",
      "outputs": [],
      "stateMutability": "nonpayable",
      "type": "function"
    },
    {
      "inputs": [
        {
          "internalType": "uint256",
          "name": "_campaignId",
          "type": "uint256"
        }
      ],
      "name": "donate",
      "outputs": [],
      "stateMutability": "payable",
      "type": "function"
    },
    {
      "inputs": [
        {
          "internalType": "uint256",
          "name": "_campaignId",
          "type": "uint256"
        }
      ],
      "name": "getCampaignStatus",
      "outputs": [
        {
          "internalType": "bool",
          "name": "isActive",
          "type": "bool"
        },
        {
          "internalType": "bool",
          "name": "hasReachedGoal",
          "type": "bool"
        },
        {
          "internalType": "bool",
          "name": "hasEnded",
          "type": "bool"
        },
        {
          "internalType": "bool",
          "name": "isWithdrawn",
          "type": "bool"
        },
        {
          "internalType": "uint256",
          "name": "timeLeft",
          "type": "uint256"
        }
      ],
      "stateMutability": "view",
      "type": "function"
    },
    {
      "inputs": [],
      "name": "getDurations",
      "outputs": [
        {
          "internalType": "uint256[]",
          "name": "",
          "type": "uint256[]"
        }
      ],
      "stateMutability": "view",
      "type": "function"
    },
    {
      "inputs": [
        {
          "internalType": "uint256",
          "name": "_campaignId",
          "type": "uint256"
        }
      ],
      "name": "withdrawFunds",
      "outputs": [],
      "stateMutability": "nonpayable",
      "type": "function"
    }
  ],
  "bytecode": "0x60806040526040518060e00160405280607862ffffff16815260200161012c62ffffff16815260200161038462ffffff168152602001610e1062ffffff1681526020016201518062ffffff16815260200162093a8062ffffff16815260200162278d0062ffffff1681525060029060076200007c92919062000091565b503480156200008a57600080fd5b5062000109565b828054828255906000526020600020908101928215620000d7579160200282015b82811115620000d6578251829062ffffff16905591602001919060010190620000b2565b5b509050620000e69190620000ea565b5090565b5b8082111562000105576000816000905550600101620000eb565b5090565b61192d80620001196000396000f3fe60806040526004361061007b5760003560e01c80636c19e0041161004e5780636c19e004146101545780637274e30d14610195578063c4d5b37d146101c0578063f14faf6f146101eb5761007b565b8063141961bc14610080578063155dd5ee146100c55780634b2aafcc146100ee5780635a20168614610117575b600080fd5b34801561008c57600080fd5b506100a760048036038101906100a29190610e7e565b610207565b6040516100bc9998979695949392919061136e565b60405180910390f35b3480156100d157600080fd5b506100ec60048036038101906100e79190610e7e565b610427565b005b3480156100fa57600080fd5b5061011560048036038101906101109190610dbf565b6106ac565b005b34801561012357600080fd5b5061013e60048036038101906101399190610e7e565b6109c3565b60405161014b9190611570565b60405180910390f35b34801561016057600080fd5b5061017b60048036038101906101769190610e7e565b6109e7565b60405161018c95949392919061131b565b60405180910390f35b3480156101a157600080fd5b506101aa610a74565b6040516101b79190611570565b60405180910390f35b3480156101cc57600080fd5b506101d5610a7a565b6040516101e291906112f9565b60405180910390f35b61020560048036038101906102009190610e7e565b610ad2565b005b600060205280600052604060002060009150905080600001805461022a906117c7565b80601f0160208091040260200160405190810160405280929190818152602001828054610256906117c7565b80156102a35780601f10610278576101008083540402835291602001916102a3565b820191906000526020600020905b81548152906001019060200180831161028657829003601f168201915b5050505050908060010160009054906101000a900473ffffffffffffffffffffffffffffffffffffffff16908060020154908060030154908060040154908060050180546102f0906117c7565b80601f016020809104026020016040519081016040528092919081815260200182805461031c906117c7565b80156103695780601f1061033e57610100808354040283529160200191610369565b820191906000526020600020905b81548152906001019060200180831161034c57829003601f168201915b50505050509080600601805461037e906117c7565b80601f01602080910402602001604051908101604052809291908181526020018280546103aa906117c7565b80156103f75780601f106103cc576101008083540402835291602001916103f7565b820191906000526020600020905b8154815290600101906020018083116103da57829003601f168201915b5050505050908060070160009054906101000a900460ff16908060070160019054906101000a900460ff16905089565b600080600083815260200190815260200160002090508060010160009054906101000a900473ffffffffffffffffffffffffffffffffffffffff1673ffffffffffffffffffffffffffffffffffffffff163373ffffffffffffffffffffffffffffffffffffffff16146104cf576040517f08c379a00000000000000000000000000000000000000000000000000000000081526004016104c690611430565b60405180910390fd5b8060070160019054906101000a900460ff1615610521576040517f08c379a0000000000000000000000000000000000000000000000000000000008152600401610518906114d0565b60405180910390fd5b80600401544210158061053c57508060020154816003015410155b61057b576040517f08c379a000000000000000000000000000000000000000000000000000000000815260040161057290611550565b60405180910390fd5b600081600301549050600081116105c7576040517f08c379a00000000000000000000000000000000000000000000000000000000081526004016105be90611470565b60405180910390fd5b60018260070160016101000a81548160ff02191690831515021790555060008260070160006101000a81548160ff0219169083151502179055507ff440aec6b52895984d061d622e6edeba6210f7c3e059be920663140c084560d7833383604051610634939291906115b4565b60405180910390a18160010160009054906101000a900473ffffffffffffffffffffffffffffffffffffffff1673ffffffffffffffffffffffffffffffffffffffff166108fc829081150290604051600060405180830381858888f193505050501580156106a6573d6000803e3d6000fd5b50505050565b600084116106ef576040517f08c379a00000000000000000000000000000000000000000000000000000000081526004016106e690611530565b60405180910390fd5b60008311610732576040517f08c379a000000000000000000000000000000000000000000000000000000000815260040161072990611490565b60405180910390fd5b6000805b6002805490508110156107ab576002818154811061077d577f4e487b7100000000000000000000000000000000000000000000000000000000600052603260045260246000fd5b906000526020600020015485141561079857600191506107ab565b80806107a3906117f9565b915050610736565b50806107ec576040517f08c379a00000000000000000000000000000000000000000000000000000000081526004016107e3906114b0565b60405180910390fd5b600160008154809291906107ff906117f9565b91905055506040518061012001604052808781526020013373ffffffffffffffffffffffffffffffffffffffff16815260200186815260200160008152602001854261084b91906116a1565b8152602001848152602001838152602001600115158152602001600015158152506000806001548152602001908152602001600020600082015181600001908051906020019061089c929190610c9f565b5060208201518160010160006101000a81548173ffffffffffffffffffffffffffffffffffffffff021916908373ffffffffffffffffffffffffffffffffffffffff16021790555060408201518160020155606082015181600301556080820151816004015560a082015181600501908051906020019061091e929190610c9f565b5060c082015181600601908051906020019061093b929190610c9f565b5060e08201518160070160006101000a81548160ff0219169083151502179055506101008201518160070160016101000a81548160ff0219169083151502179055509050507f633109eec20320eded000fc1e2634211aa7e92ba3f5b15faf6dcdafca05094e4600154336040516109b392919061158b565b60405180910390a1505050505050565b600281815481106109d357600080fd5b906000526020600020016000915090505481565b60008060008060008060008088815260200190815260200160002090508060070160009054906101000a900460ff1695508060020154816003015410159450806004015442101593508060070160019054906101000a900460ff1692508060040154421015610a6557428160040154610a6091906116f7565b610a68565b60005b91505091939590929450565b60015481565b60606002805480602002602001604051908101604052809291908181526020018280548015610ac857602002820191906000526020600020905b815481526020019060010190808311610ab4575b5050505050905090565b600080600083815260200190815260200160002090508060070160009054906101000a900460ff16610b39576040517f08c379a0000000000000000000000000000000000000000000000000000000008152600401610b30906114f0565b60405180910390fd5b80600401544210610b7f576040517f08c379a0000000000000000000000000000000000000000000000000000000008152600401610b7690611410565b60405180910390fd5b60003411610bc2576040517f08c379a0000000000000000000000000000000000000000000000000000000008152600401610bb990611510565b60405180910390fd5b8060020154348260030154610bd791906116a1565b1115610c18576040517f08c379a0000000000000000000000000000000000000000000000000000000008152600401610c0f90611450565b60405180910390fd5b34816003016000828254610c2c91906116a1565b925050819055507f0b5b4c52969ff7329ecf7ee536409fda87812b15a8622bc6e8cdeab3aee14a26823334604051610c66939291906115b4565b60405180910390a18060020154816003015410610c9b5760008160070160006101000a81548160ff0219169083151502179055505b5050565b828054610cab906117c7565b90600052602060002090601f016020900481019282610ccd5760008555610d14565b82601f10610ce657805160ff1916838001178555610d14565b82800160010185558215610d14579182015b82811115610d13578251825591602001919060010190610cf8565b5b509050610d219190610d25565b5090565b5b80821115610d3e576000816000905550600101610d26565b5090565b6000610d55610d508461161c565b6115eb565b905082815260208101848484011115610d6d57600080fd5b610d78848285611785565b509392505050565b600082601f830112610d9157600080fd5b8135610da1848260208601610d42565b91505092915050565b600081359050610db9816118e0565b92915050565b600080600080600060a08688031215610dd757600080fd5b600086013567ffffffffffffffff811115610df157600080fd5b610dfd88828901610d80565b9550506020610e0e88828901610daa565b9450506040610e1f88828901610daa565b935050606086013567ffffffffffffffff811115610e3c57600080fd5b610e4888828901610d80565b925050608086013567ffffffffffffffff811115610e6557600080fd5b610e7188828901610d80565b9150509295509295909350565b600060208284031215610e9057600080fd5b6000610e9e84828501610daa565b91505092915050565b6000610eb383836112db565b60208301905092915050565b610ec88161173d565b82525050565b610ed78161172b565b82525050565b6000610ee88261165c565b610ef2818561167f565b9350610efd8361164c565b8060005b83811015610f2e578151610f158882610ea7565b9750610f2083611672565b925050600181019050610f01565b5085935050505092915050565b610f448161174f565b82525050565b6000610f5582611667565b610f5f8185611690565b9350610f6f818560208601611794565b610f78816118cf565b840191505092915050565b6000610f90601283611690565b91507f43616d706169676e2068617320656e64656400000000000000000000000000006000830152602082019050919050565b6000610fd0602283611690565b91507f4f6e6c792063616d706169676e2063726561746f722063616e2077697468647260008301527f61770000000000000000000000000000000000000000000000000000000000006020830152604082019050919050565b6000611036602383611690565b91507f446f6e6174696f6e20776f756c64206578636565642063616d706169676e206760008301527f6f616c00000000000000000000000000000000000000000000000000000000006020830152604082019050919050565b600061109c601483611690565b91507f4e6f2066756e647320746f2077697468647261770000000000000000000000006000830152602082019050919050565b60006110dc601f83611690565b91507f4475726174696f6e206d7573742062652067726561746572207468616e2030006000830152602082019050919050565b600061111c601983611690565b91507f496e76616c6964206475726174696f6e2073656c6563746564000000000000006000830152602082019050919050565b600061115c602183611690565b91507f46756e6473206861766520616c7265616479206265656e20776974686472617760008301527f6e000000000000000000000000000000000000000000000000000000000000006020830152604082019050919050565b60006111c2601683611690565b91507f43616d706169676e206973206e6f7420616374697665000000000000000000006000830152602082019050919050565b6000611202601983611690565b91507f4d7573742073656e6420657468657220746f20646f6e617465000000000000006000830152602082019050919050565b6000611242601b83611690565b91507f476f616c206d7573742062652067726561746572207468616e203000000000006000830152602082019050919050565b6000611282602683611690565b91507f43616d706169676e206d75737420626520656e646564206f7220676f616c207260008301527f65616368656400000000000000000000000000000000000000000000000000006020830152604082019050919050565b6112e48161177b565b82525050565b6112f38161177b565b82525050565b600060208201905081810360008301526113138184610edd565b905092915050565b600060a0820190506113306000830188610f3b565b61133d6020830187610f3b565b61134a6040830186610f3b565b6113576060830185610f3b565b61136460808301846112ea565b9695505050505050565b6000610120820190508181036000830152611389818c610f4a565b9050611398602083018b610ebf565b6113a5604083018a6112ea565b6113b260608301896112ea565b6113bf60808301886112ea565b81810360a08301526113d18187610f4a565b905081810360c08301526113e58186610f4a565b90506113f460e0830185610f3b565b611402610100830184610f3b565b9a9950505050505050505050565b6000602082019050818103600083015261142981610f83565b9050919050565b6000602082019050818103600083015261144981610fc3565b9050919050565b6000602082019050818103600083015261146981611029565b9050919050565b600060208201905081810360008301526114898161108f565b9050919050565b600060208201905081810360008301526114a9816110cf565b9050919050565b600060208201905081810360008301526114c98161110f565b9050919050565b600060208201905081810360008301526114e98161114f565b9050919050565b60006020820190508181036000830152611509816111b5565b9050919050565b60006020820190508181036000830152611529816111f5565b9050919050565b6000602082019050818103600083015261154981611235565b9050919050565b6000602082019050818103600083015261156981611275565b9050919050565b600060208201905061158560008301846112ea565b92915050565b60006040820190506115a060008301856112ea565b6115ad6020830184610ece565b9392505050565b60006060820190506115c960008301866112ea565b6115d66020830185610ece565b6115e360408301846112ea565b949350505050565b6000604051905081810181811067ffffffffffffffff82111715611612576116116118a0565b5b8060405250919050565b600067ffffffffffffffff821115611637576116366118a0565b5b601f19601f8301169050602081019050919050565b6000819050602082019050919050565b600081519050919050565b600081519050919050565b6000602082019050919050565b600082825260208201905092915050565b600082825260208201905092915050565b60006116ac8261177b565b91506116b78361177b565b9250827fffffffffffffffffffffffffffffffffffffffffffffffffffffffffffffffff038211156116ec576116eb611842565b5b828201905092915050565b60006117028261177b565b915061170d8361177b565b9250828210156117205761171f611842565b5b828203905092915050565b60006117368261175b565b9050919050565b60006117488261175b565b9050919050565b60008115159050919050565b600073ffffffffffffffffffffffffffffffffffffffff82169050919050565b6000819050919050565b82818337600083830152505050565b60005b838110156117b2578082015181840152602081019050611797565b838111156117c1576000848401525b50505050565b600060028204905060018216806117df57607f821691505b602082108114156117f3576117f2611871565b5b50919050565b60006118048261177b565b91507fffffffffffffffffffffffffffffffffffffffffffffffffffffffffffffffff82141561183757611836611842565b5b600182019050919050565b7f4e487b7100000000000000000000000000000000000000000000000000000000600052601160045260246000fd5b7f4e487b7100000000000000000000000000000000000000000000000000000000600052602260045260246000fd5b7f4e487b7100000000000000000000000000000000000000000000000000000000600052604160045260246000fd5b6000601f19601f8301169050919050565b6118e98161177b565b81146118f457600080fd5b5056fea2646970667358221220d8a33b04bc7ed5a4c5081edfb7ab3aebde5d6121456929bfd799ce94f3d864d564736f6c63430008000033",
  "linkReferences": {},
  "deployedLinkReferences": {}
}