{
  "_format": "hh-sol-artifact-1",
  "contractName": "Campaign",
  "sourceName": "contracts/Campaign.sol",
  "abi": [
    {
      "anonymous": false,
      "inputs": [
        {
          "indexed": false,
          "internalType": "uint256",
          "name": "campaignId",
          "type": "uint256"
        },
        {
          "indexed": false,
          "internalType": "address",
          "name": "fundraiser",
          "type": "address"
        }
      ],
      "name": "CampaignCreated",
      "type": "event"
    },
    {
      "anonymous": false,
      "inputs": [
        {
          "indexed": false,
          "internalType": "uint256",
          "name": "campaignId",
          "type": "uint256"
        },
        {
          "indexed": false,
          "internalType": "address",
          "name": "donor",
          "type": "address"
        },
        {
          "indexed": false,
          "internalType": "uint256",
          "name": "amount",
          "type": "uint256"
        }
      ],
      "name": "DonationReceived",
      "type": "event"
    },
    {
      "anonymous": false,
      "inputs": [
        {
          "indexed": false,
          "internalType": "uint256",
          "name": "campaignId",
          "type": "uint256"
        },
        {
          "indexed": false,
          "internalType": "address",
          "name": "fundraiser",
          "type": "address"
        },
        {
          "indexed": false,
          "internalType": "uint256",
          "name": "amount",
          "type": "uint256"
        }
      ],
      "name": "FundsWithdrawn",
      "type": "event"
    },
    {
      "inputs": [],
      "name": "campaignCount",
      "outputs": [
        {
          "internalType": "uint256",
          "name": "",
          "type": "uint256"
        }
      ],
      "stateMutability": "view",
      "type": "function"
    },
    {
      "inputs": [
        {
          "internalType": "uint256",
          "name": "",
          "type": "uint256"
        }
      ],
      "name": "campaigns",
      "outputs": [
        {
          "internalType": "string",
          "name": "title",
          "type": "string"
        },
        {
          "internalType": "address payable",
          "name": "fundraiser",
          "type": "address"
        },
        {
          "internalType": "uint256",
          "name": "goal",
          "type": "uint256"
        },
        {
          "internalType": "uint256",
          "name": "raisedAmount",
          "type": "uint256"
        },
        {
          "internalType": "uint256",
          "name": "deadline",
          "type": "uint256"
        },
        {
          "internalType": "string",
          "name": "story",
          "type": "string"
        },
        {
          "internalType": "string",
          "name": "imageUrl",
          "type": "string"
        },
        {
          "internalType": "bool",
          "name": "isActive",
          "type": "bool"
        },
        {
          "internalType": "bool",
          "name": "isWithdrawn",
          "type": "bool"
        }
      ],
      "stateMutability": "view",
      "type": "function"
    },
    {
      "inputs": [
        {
          "internalType": "string",
          "name": "_title",
          "type": "string"
        },
        {
          "internalType": "uint256",
          "name": "_goal",
          "type": "uint256"
        },
        {
          "internalType": "uint256",
          "name": "_duration",
          "type": "uint256"
        },
        {
          "internalType": "string",
          "name": "_story",
          "type": "string"
        },
        {
          "internalType": "string",
          "name": "_imageUrl",
          "type": "string"
        }
      ],
      "name": "createCampaign",
      "outputs": [],
      "stateMutability": "nonpayable",
      "type": "function"
    },
    {
      "inputs": [
        {
          "internalType": "uint256",
          "name": "_campaignId",
          "type": "uint256"
        }
      ],
      "name": "donate",
      "outputs": [],
      "stateMutability": "payable",
      "type": "function"
    },
    {
      "inputs": [
        {
          "internalType": "uint256",
          "name": "_campaignId",
          "type": "uint256"
        }
      ],
      "name": "getCampaignStatus",
      "outputs": [
        {
          "internalType": "bool",
          "name": "isActive",
          "type": "bool"
        },
        {
          "internalType": "bool",
          "name": "hasReachedGoal",
          "type": "bool"
        },
        {
          "internalType": "bool",
          "name": "hasEnded",
          "type": "bool"
        },
        {
          "internalType": "bool",
          "name": "isWithdrawn",
          "type": "bool"
        }
      ],
      "stateMutability": "view",
      "type": "function"
    },
    {
      "inputs": [
        {
          "internalType": "uint256",
          "name": "_campaignId",
          "type": "uint256"
        }
      ],
      "name": "withdrawFunds",
      "outputs": [],
      "stateMutability": "nonpayable",
      "type": "function"
    }
  ],
  "bytecode": "0x608060405234801561001057600080fd5b50611556806100206000396000f3fe6080604052600436106100555760003560e01c8063141961bc1461005a578063155dd5ee1461009f5780634b2aafcc146100c85780636c19e004146100f15780637274e30d14610131578063f14faf6f1461015c575b600080fd5b34801561006657600080fd5b50610081600480360381019061007c9190610c4f565b610178565b60405161009699989796959493929190611024565b60405180910390f35b3480156100ab57600080fd5b506100c660048036038101906100c19190610c4f565b610398565b005b3480156100d457600080fd5b506100ef60048036038101906100ea9190610b90565b61060a565b005b3480156100fd57600080fd5b5061011860048036038101906101139190610c4f565b610866565b6040516101289493929190610fdf565b60405180910390f35b34801561013d57600080fd5b506101466108ca565b6040516101539190611206565b60405180910390f35b61017660048036038101906101719190610c4f565b6108d0565b005b600060205280600052604060002060009150905080600001805461019b906113f0565b80601f01602080910402602001604051908101604052809291908181526020018280546101c7906113f0565b80156102145780601f106101e957610100808354040283529160200191610214565b820191906000526020600020905b8154815290600101906020018083116101f757829003601f168201915b5050505050908060010160009054906101000a900473ffffffffffffffffffffffffffffffffffffffff1690806002015490806003015490806004015490806005018054610261906113f0565b80601f016020809104026020016040519081016040528092919081815260200182805461028d906113f0565b80156102da5780601f106102af576101008083540402835291602001916102da565b820191906000526020600020905b8154815290600101906020018083116102bd57829003601f168201915b5050505050908060060180546102ef906113f0565b80601f016020809104026020016040519081016040528092919081815260200182805461031b906113f0565b80156103685780601f1061033d57610100808354040283529160200191610368565b820191906000526020600020905b81548152906001019060200180831161034b57829003601f168201915b5050505050908060070160009054906101000a900460ff16908060070160019054906101000a900460ff16905089565b600080600083815260200190815260200160002090508060010160009054906101000a900473ffffffffffffffffffffffffffffffffffffffff1673ffffffffffffffffffffffffffffffffffffffff163373ffffffffffffffffffffffffffffffffffffffff1614610440576040517f08c379a0000000000000000000000000000000000000000000000000000000008152600401610437906110e6565b60405180910390fd5b8060070160019054906101000a900460ff1615610492576040517f08c379a000000000000000000000000000000000000000000000000000000000815260040161048990611186565b60405180910390fd5b80600401544210156104d9576040517f08c379a00000000000000000000000000000000000000000000000000000000081526004016104d090611166565b60405180910390fd5b60008160030154905060008111610525576040517f08c379a000000000000000000000000000000000000000000000000000000000815260040161051c90611126565b60405180910390fd5b60018260070160016101000a81548160ff02191690831515021790555060008260070160006101000a81548160ff0219169083151502179055507ff440aec6b52895984d061d622e6edeba6210f7c3e059be920663140c084560d78333836040516105929392919061124a565b60405180910390a18160010160009054906101000a900473ffffffffffffffffffffffffffffffffffffffff1673ffffffffffffffffffffffffffffffffffffffff166108fc829081150290604051600060405180830381858888f19350505050158015610604573d6000803e3d6000fd5b50505050565b6000841161064d576040517f08c379a0000000000000000000000000000000000000000000000000000000008152600401610644906111e6565b60405180910390fd5b60008311610690576040517f08c379a000000000000000000000000000000000000000000000000000000000815260040161068790611146565b60405180910390fd5b600160008154809291906106a390611422565b91905055506040518061012001604052808681526020013373ffffffffffffffffffffffffffffffffffffffff1681526020018581526020016000815260200184426106ef91906112fe565b81526020018381526020018281526020016001151581526020016000151581525060008060015481526020019081526020016000206000820151816000019080519060200190610740929190610a70565b5060208201518160010160006101000a81548173ffffffffffffffffffffffffffffffffffffffff021916908373ffffffffffffffffffffffffffffffffffffffff16021790555060408201518160020155606082015181600301556080820151816004015560a08201518160050190805190602001906107c2929190610a70565b5060c08201518160060190805190602001906107df929190610a70565b5060e08201518160070160006101000a81548160ff0219169083151502179055506101008201518160070160016101000a81548160ff0219169083151502179055509050507f633109eec20320eded000fc1e2634211aa7e92ba3f5b15faf6dcdafca05094e460015433604051610857929190611221565b60405180910390a15050505050565b600080600080600080600087815260200190815260200160002090508060070160009054906101000a900460ff1694508060020154816003015410159350806004015442101592508060070160019054906101000a900460ff169150509193509193565b60015481565b600080600083815260200190815260200160002090508060070160009054906101000a900460ff16610937576040517f08c379a000000000000000000000000000000000000000000000000000000000815260040161092e906111a6565b60405180910390fd5b8060040154421061097d576040517f08c379a0000000000000000000000000000000000000000000000000000000008152600401610974906110c6565b60405180910390fd5b600034116109c0576040517f08c379a00000000000000000000000000000000000000000000000000000000081526004016109b7906111c6565b60405180910390fd5b80600201543482600301546109d591906112fe565b1115610a16576040517f08c379a0000000000000000000000000000000000000000000000000000000008152600401610a0d90611106565b60405180910390fd5b34816003016000828254610a2a91906112fe565b925050819055507f0b5b4c52969ff7329ecf7ee536409fda87812b15a8622bc6e8cdeab3aee14a26823334604051610a649392919061124a565b60405180910390a15050565b828054610a7c906113f0565b90600052602060002090601f016020900481019282610a9e5760008555610ae5565b82601f10610ab757805160ff1916838001178555610ae5565b82800160010185558215610ae5579182015b82811115610ae4578251825591602001919060010190610ac9565b5b509050610af29190610af6565b5090565b5b80821115610b0f576000816000905550600101610af7565b5090565b6000610b26610b21846112b2565b611281565b905082815260208101848484011115610b3e57600080fd5b610b498482856113ae565b509392505050565b600082601f830112610b6257600080fd5b8135610b72848260208601610b13565b91505092915050565b600081359050610b8a81611509565b92915050565b600080600080600060a08688031215610ba857600080fd5b600086013567ffffffffffffffff811115610bc257600080fd5b610bce88828901610b51565b9550506020610bdf88828901610b7b565b9450506040610bf088828901610b7b565b935050606086013567ffffffffffffffff811115610c0d57600080fd5b610c1988828901610b51565b925050608086013567ffffffffffffffff811115610c3657600080fd5b610c4288828901610b51565b9150509295509295909350565b600060208284031215610c6157600080fd5b6000610c6f84828501610b7b565b91505092915050565b610c8181611366565b82525050565b610c9081611354565b82525050565b610c9f81611378565b82525050565b6000610cb0826112e2565b610cba81856112ed565b9350610cca8185602086016113bd565b610cd3816114f8565b840191505092915050565b6000610ceb6012836112ed565b91507f43616d706169676e2068617320656e64656400000000000000000000000000006000830152602082019050919050565b6000610d2b6022836112ed565b91507f4f6e6c792063616d706169676e2063726561746f722063616e2077697468647260008301527f61770000000000000000000000000000000000000000000000000000000000006020830152604082019050919050565b6000610d916023836112ed565b91507f446f6e6174696f6e20776f756c64206578636565642063616d706169676e206760008301527f6f616c00000000000000000000000000000000000000000000000000000000006020830152604082019050919050565b6000610df76014836112ed565b91507f4e6f2066756e647320746f2077697468647261770000000000000000000000006000830152602082019050919050565b6000610e37601f836112ed565b91507f4475726174696f6e206d7573742062652067726561746572207468616e2030006000830152602082019050919050565b6000610e77601a836112ed565b91507f43616d706169676e20686173206e6f7420656e646564207965740000000000006000830152602082019050919050565b6000610eb76021836112ed565b91507f46756e6473206861766520616c7265616479206265656e20776974686472617760008301527f6e000000000000000000000000000000000000000000000000000000000000006020830152604082019050919050565b6000610f1d6016836112ed565b91507f43616d706169676e206973206e6f7420616374697665000000000000000000006000830152602082019050919050565b6000610f5d6019836112ed565b91507f4d7573742073656e6420657468657220746f20646f6e617465000000000000006000830152602082019050919050565b6000610f9d601b836112ed565b91507f476f616c206d7573742062652067726561746572207468616e203000000000006000830152602082019050919050565b610fd9816113a4565b82525050565b6000608082019050610ff46000830187610c96565b6110016020830186610c96565b61100e6040830185610c96565b61101b6060830184610c96565b95945050505050565b600061012082019050818103600083015261103f818c610ca5565b905061104e602083018b610c78565b61105b604083018a610fd0565b6110686060830189610fd0565b6110756080830188610fd0565b81810360a08301526110878187610ca5565b905081810360c083015261109b8186610ca5565b90506110aa60e0830185610c96565b6110b8610100830184610c96565b9a9950505050505050505050565b600060208201905081810360008301526110df81610cde565b9050919050565b600060208201905081810360008301526110ff81610d1e565b9050919050565b6000602082019050818103600083015261111f81610d84565b9050919050565b6000602082019050818103600083015261113f81610dea565b9050919050565b6000602082019050818103600083015261115f81610e2a565b9050919050565b6000602082019050818103600083015261117f81610e6a565b9050919050565b6000602082019050818103600083015261119f81610eaa565b9050919050565b600060208201905081810360008301526111bf81610f10565b9050919050565b600060208201905081810360008301526111df81610f50565b9050919050565b600060208201905081810360008301526111ff81610f90565b9050919050565b600060208201905061121b6000830184610fd0565b92915050565b60006040820190506112366000830185610fd0565b6112436020830184610c87565b9392505050565b600060608201905061125f6000830186610fd0565b61126c6020830185610c87565b6112796040830184610fd0565b949350505050565b6000604051905081810181811067ffffffffffffffff821117156112a8576112a76114c9565b5b8060405250919050565b600067ffffffffffffffff8211156112cd576112cc6114c9565b5b601f19601f8301169050602081019050919050565b600081519050919050565b600082825260208201905092915050565b6000611309826113a4565b9150611314836113a4565b9250827fffffffffffffffffffffffffffffffffffffffffffffffffffffffffffffffff038211156113495761134861146b565b5b828201905092915050565b600061135f82611384565b9050919050565b600061137182611384565b9050919050565b60008115159050919050565b600073ffffffffffffffffffffffffffffffffffffffff82169050919050565b6000819050919050565b82818337600083830152505050565b60005b838110156113db5780820151818401526020810190506113c0565b838111156113ea576000848401525b50505050565b6000600282049050600182168061140857607f821691505b6020821081141561141c5761141b61149a565b5b50919050565b600061142d826113a4565b91507fffffffffffffffffffffffffffffffffffffffffffffffffffffffffffffffff8214156114605761145f61146b565b5b600182019050919050565b7f4e487b7100000000000000000000000000000000000000000000000000000000600052601160045260246000fd5b7f4e487b7100000000000000000000000000000000000000000000000000000000600052602260045260246000fd5b7f4e487b7100000000000000000000000000000000000000000000000000000000600052604160045260246000fd5b6000601f19601f8301169050919050565b611512816113a4565b811461151d57600080fd5b5056fea2646970667358221220cd3c1df2cb34851dd3685f36d8ce7edd130bd3995aa6e7eabef2096e825a48bc64736f6c63430008000033",
  "linkReferences": {},
  "deployedLinkReferences": {}
}