{
  "_format": "hh-sol-artifact-1",
  "contractName": "Campaign",
  "sourceName": "contracts/Campaign.sol",
  "abi": [
    {
      "inputs": [],
      "name": "campaignCount",
      "outputs": [
        {
          "internalType": "uint256",
          "name": "",
          "type": "uint256"
        }
      ],
      "stateMutability": "view",
      "type": "function"
    },
    {
      "inputs": [
        {
          "internalType": "uint256",
          "name": "",
          "type": "uint256"
        }
      ],
      "name": "campaigns",
      "outputs": [
        {
          "internalType": "string",
          "name": "title",
          "type": "string"
        },
        {
          "internalType": "address payable",
          "name": "fundraiser",
          "type": "address"
        },
        {
          "internalType": "uint256",
          "name": "goal",
          "type": "uint256"
        },
        {
          "internalType": "uint256",
          "name": "raisedAmount",
          "type": "uint256"
        },
        {
          "internalType": "uint256",
          "name": "deadline",
          "type": "uint256"
        },
        {
          "internalType": "string",
          "name": "story",
          "type": "string"
        },
        {
          "internalType": "string",
          "name": "imageUrl",
          "type": "string"
        },
        {
          "internalType": "bool",
          "name": "isActive",
          "type": "bool"
        }
      ],
      "stateMutability": "view",
      "type": "function"
    },
    {
      "inputs": [
        {
          "internalType": "string",
          "name": "_title",
          "type": "string"
        },
        {
          "internalType": "uint256",
          "name": "_goal",
          "type": "uint256"
        },
        {
          "internalType": "uint256",
          "name": "_duration",
          "type": "uint256"
        },
        {
          "internalType": "string",
          "name": "_story",
          "type": "string"
        },
        {
          "internalType": "string",
          "name": "_imageUrl",
          "type": "string"
        }
      ],
      "name": "createCampaign",
      "outputs": [],
      "stateMutability": "nonpayable",
      "type": "function"
    },
    {
      "inputs": [
        {
          "internalType": "uint256",
          "name": "_campaignId",
          "type": "uint256"
        }
      ],
      "name": "donate",
      "outputs": [],
      "stateMutability": "payable",
      "type": "function"
    }
  ],
  "bytecode": "0x608060405234801561001057600080fd5b50610c80806100206000396000f3fe60806040526004361061003f5760003560e01c8063141961bc146100445780634b2aafcc146100885780637274e30d146100b1578063f14faf6f146100dc575b600080fd5b34801561005057600080fd5b5061006b600480360381019061006691906107c0565b6100f8565b60405161007f9897969594939291906108cf565b60405180910390f35b34801561009457600080fd5b506100af60048036038101906100aa9190610701565b610305565b005b3480156100bd57600080fd5b506100c6610476565b6040516100d391906109a2565b60405180910390f35b6100f660048036038101906100f191906107c0565b61047c565b005b600060205280600052604060002060009150905080600001805461011b90610b1a565b80601f016020809104026020016040519081016040528092919081815260200182805461014790610b1a565b80156101945780601f1061016957610100808354040283529160200191610194565b820191906000526020600020905b81548152906001019060200180831161017757829003601f168201915b5050505050908060010160009054906101000a900473ffffffffffffffffffffffffffffffffffffffff16908060020154908060030154908060040154908060050180546101e190610b1a565b80601f016020809104026020016040519081016040528092919081815260200182805461020d90610b1a565b801561025a5780601f1061022f5761010080835404028352916020019161025a565b820191906000526020600020905b81548152906001019060200180831161023d57829003601f168201915b50505050509080600601805461026f90610b1a565b80601f016020809104026020016040519081016040528092919081815260200182805461029b90610b1a565b80156102e85780601f106102bd576101008083540402835291602001916102e8565b820191906000526020600020905b8154815290600101906020018083116102cb57829003601f168201915b5050505050908060070160009054906101000a900460ff16905088565b6001600081548092919061031890610b4c565b91905055506040518061010001604052808681526020013373ffffffffffffffffffffffffffffffffffffffff1681526020018581526020016000815260200184426103649190610a3a565b815260200183815260200182815260200160011515815250600080600154815260200190815260200160002060008201518160000190805190602001906103ac9291906105e1565b5060208201518160010160006101000a81548173ffffffffffffffffffffffffffffffffffffffff021916908373ffffffffffffffffffffffffffffffffffffffff16021790555060408201518160020155606082015181600301556080820151816004015560a082015181600501908051906020019061042e9291906105e1565b5060c082015181600601908051906020019061044b9291906105e1565b5060e08201518160070160006101000a81548160ff0219169083151502179055509050505050505050565b60015481565b600080600083815260200190815260200160002090508060070160009054906101000a900460ff166104e3576040517f08c379a00000000000000000000000000000000000000000000000000000000081526004016104da90610962565b60405180910390fd5b60003411610526576040517f08c379a000000000000000000000000000000000000000000000000000000000815260040161051d90610982565b60405180910390fd5b3481600301600082825461053a9190610a3a565b9250508190555080600201548160030154106105dd578060010160009054906101000a900473ffffffffffffffffffffffffffffffffffffffff1673ffffffffffffffffffffffffffffffffffffffff166108fc82600301549081150290604051600060405180830381858888f193505050501580156105be573d6000803e3d6000fd5b5060008160070160006101000a81548160ff0219169083151502179055505b5050565b8280546105ed90610b1a565b90600052602060002090601f01602090048101928261060f5760008555610656565b82601f1061062857805160ff1916838001178555610656565b82800160010185558215610656579182015b8281111561065557825182559160200191906001019061063a565b5b5090506106639190610667565b5090565b5b80821115610680576000816000905550600101610668565b5090565b6000610697610692846109ee565b6109bd565b9050828152602081018484840111156106af57600080fd5b6106ba848285610ad8565b509392505050565b600082601f8301126106d357600080fd5b81356106e3848260208601610684565b91505092915050565b6000813590506106fb81610c33565b92915050565b600080600080600060a0868803121561071957600080fd5b600086013567ffffffffffffffff81111561073357600080fd5b61073f888289016106c2565b9550506020610750888289016106ec565b9450506040610761888289016106ec565b935050606086013567ffffffffffffffff81111561077e57600080fd5b61078a888289016106c2565b925050608086013567ffffffffffffffff8111156107a757600080fd5b6107b3888289016106c2565b9150509295509295909350565b6000602082840312156107d257600080fd5b60006107e0848285016106ec565b91505092915050565b6107f281610a90565b82525050565b61080181610aa2565b82525050565b600061081282610a1e565b61081c8185610a29565b935061082c818560208601610ae7565b61083581610c22565b840191505092915050565b600061084d601683610a29565b91507f43616d706169676e206973206e6f7420616374697665000000000000000000006000830152602082019050919050565b600061088d601983610a29565b91507f4d7573742073656e6420657468657220746f20646f6e617465000000000000006000830152602082019050919050565b6108c981610ace565b82525050565b60006101008201905081810360008301526108ea818b610807565b90506108f9602083018a6107e9565b61090660408301896108c0565b61091360608301886108c0565b61092060808301876108c0565b81810360a08301526109328186610807565b905081810360c08301526109468185610807565b905061095560e08301846107f8565b9998505050505050505050565b6000602082019050818103600083015261097b81610840565b9050919050565b6000602082019050818103600083015261099b81610880565b9050919050565b60006020820190506109b760008301846108c0565b92915050565b6000604051905081810181811067ffffffffffffffff821117156109e4576109e3610bf3565b5b8060405250919050565b600067ffffffffffffffff821115610a0957610a08610bf3565b5b601f19601f8301169050602081019050919050565b600081519050919050565b600082825260208201905092915050565b6000610a4582610ace565b9150610a5083610ace565b9250827fffffffffffffffffffffffffffffffffffffffffffffffffffffffffffffffff03821115610a8557610a84610b95565b5b828201905092915050565b6000610a9b82610aae565b9050919050565b60008115159050919050565b600073ffffffffffffffffffffffffffffffffffffffff82169050919050565b6000819050919050565b82818337600083830152505050565b60005b83811015610b05578082015181840152602081019050610aea565b83811115610b14576000848401525b50505050565b60006002820490506001821680610b3257607f821691505b60208210811415610b4657610b45610bc4565b5b50919050565b6000610b5782610ace565b91507fffffffffffffffffffffffffffffffffffffffffffffffffffffffffffffffff821415610b8a57610b89610b95565b5b600182019050919050565b7f4e487b7100000000000000000000000000000000000000000000000000000000600052601160045260246000fd5b7f4e487b7100000000000000000000000000000000000000000000000000000000600052602260045260246000fd5b7f4e487b7100000000000000000000000000000000000000000000000000000000600052604160045260246000fd5b6000601f19601f8301169050919050565b610c3c81610ace565b8114610c4757600080fd5b5056fea2646970667358221220ca1217f6e53aa6b3c2059c5dbee156dcd70ee061af240d37ee8bac536e5808aa64736f6c63430008000033",
  "linkReferences": {},
  "deployedLinkReferences": {}
}